{
  "contractName": "ConsumerRole",
  "abi": [
    {
      "inputs": [],
      "payable": false,
      "stateMutability": "nonpayable",
      "type": "constructor"
    },
    {
      "constant": true,
      "inputs": [
        {
          "name": "account",
          "type": "address"
        }
      ],
      "name": "isConsumer",
      "outputs": [
        {
          "name": "",
          "type": "bool"
        }
      ],
      "payable": false,
      "stateMutability": "view",
      "type": "function"
    },
    {
      "constant": false,
      "inputs": [
        {
          "name": "account",
          "type": "address"
        }
      ],
      "name": "addConsumer",
      "outputs": [],
      "payable": false,
      "stateMutability": "nonpayable",
      "type": "function"
    },
    {
      "constant": false,
      "inputs": [],
      "name": "renounceConsumer",
      "outputs": [],
      "payable": false,
      "stateMutability": "nonpayable",
      "type": "function"
    }
  ],
  "bytecode": "0x608060405234801561001057600080fd5b50610149806100206000396000f300608060405260043610610057576000357c0100000000000000000000000000000000000000000000000000000000900463ffffffff168063112940f91461005c57806361e6982d1461009f578063834ff739146100b6575b600080fd5b34801561006857600080fd5b5061009d600480360381019080803573ffffffffffffffffffffffffffffffffffffffff169060200190929190505050610111565b005b3480156100ab57600080fd5b506100b4610114565b005b3480156100c257600080fd5b506100f7600480360381019080803573ffffffffffffffffffffffffffffffffffffffff169060200190929190505050610116565b604051808215151515815260200191505060405180910390f35b50565b565b60009190505600a165627a7a723058208a5621ce4b36b246eebb1efa98fe9279315885bffc75acfe1ef23a9eee243c780029",
  "source": "pragma solidity ^0.4.24;\n\n// Import the library 'Roles'\nimport \"./Roles.sol\";\n\n// Define a contract 'ConsumerRole' to manage this role - add, remove, check\ncontract ConsumerRole {\n\n  // Define 2 events, one for Adding, and other for Removing\n\n  // Define a struct 'consumers' by inheriting from 'Roles' library, struct Role\n\n  // In the constructor make the address that deploys this contract the 1st consumer\n  constructor() public {\n    \n  }\n\n  // Define a modifier that checks to see if msg.sender has the appropriate role\n  modifier onlyConsumer() {\n    \n    _;\n  }\n\n  // Define a function 'isConsumer' to check this role\n  function isConsumer(address account) public view returns (bool) {\n    \n  }\n\n  // Define a function 'addConsumer' that adds this role\n  function addConsumer(address account) public onlyConsumer {\n    \n  }\n\n  // Define a function 'renounceConsumer' to renounce this role\n  function renounceConsumer() public {\n    \n  }\n\n  // Define an internal function '_addConsumer' to add this role, called by 'addConsumer'\n  function _addConsumer(address account) internal {\n    \n  }\n\n  // Define an internal function '_removeConsumer' to remove this role, called by 'removeConsumer'\n  function _removeConsumer(address account) internal {\n    \n  }\n}",
  "sourcePath": "/Users/vadims/projects/trackingdapp/project-6/contracts/coffeeaccesscontrol/ConsumerRole.sol",
  "compiler": {
    "name": "solc",
    "version": "0.4.24+commit.e67f0147.Emscripten.clang"
  },
  "schemaVersion": "2.0.1",
  "updatedAt": "2021-12-27T22:02:04.360Z"
}